:020000040800F2
:1000000000400020390200083508000839080008BF
:1000100000000000000000000000000000000000E0
:10002000000000000000000000000000890200083D
:100030000000000000000000890200083D080008E0
:1000400089020008000000008902000889020008F7
:100050008902000889020008890200088902000854
:1000600000000000890200088902000889020008D7
:100070004508000889020008890200080000000005
:100080008902000889020008890200088902000824
:100090008902000889020008890200088902000814
:1000A0008902000889020008890200085508000832
:1000B0008902000889020008000000008902000887
:1000C00010B5064C2378002B07D1054B002B02D02E
:1000D000044800E000BF0123237010BD040000208D
:1000E00000000000E4340008084B10B5002B03D0DA
:1000F0000749084800E000BF07480368002B00D10B
:1001000010BD064B002BFBD09847F9E7000000001C
:1001100008000020E4340008040000200000000073
:10012000002243088B4274D303098B425FD3030A36
:100130008B4244D3030B8B4228D3030C8B420DD349
:10014000FF22090212BA030C8B4202D312120902D7
:1001500065D0030B8B4219D300E0090AC30B8B4215
:1001600001D3CB03C01A5241830B8B4201D38B03C3
:10017000C01A5241430B8B4201D34B03C01A524168
:10018000030B8B4201D30B03C01A5241C30A8B42AB
:1001900001D3CB02C01A5241830A8B4201D38B0296
:1001A000C01A5241430A8B4201D34B02C01A52413A
:1001B000030A8B4201D30B02C01A5241CDD2C309AC
:1001C0008B4201D3CB01C01A524183098B4201D328
:1001D0008B01C01A524143098B4201D34B01C01A13
:1001E000524103098B4201D30B01C01A5241C3088B
:1001F0008B4201D3CB00C01A524183088B4201D3FA
:100200008B00C01A524143088B4201D34B00C01AE5
:100210005241411A00D20146524110467047FFE751
:1002200001B5002000F006F802BDC0460029F7D055
:1002300076E770477047C0460D4885460D480E4921
:100240000E4A002302E0D458C4500433C4188C4230
:10025000F9D30B4A0B4C002301E013600432A24295
:10026000FBD300F063FC03F011F900F0A7FAFEE7FE
:10027000004000200000002004000020D8390008C1
:1002800004000020F8010020FEE7000010B584B053
:100290000C22002101A803F01DF90122374C384B34
:1002A00022616262C222236004210023FF32200007
:1002B0006360A360E3606161A361E3612362A262A2
:1002C000E3622363636300F095FC002853D10023AD
:1002D000019380235B010293802301A95B05200029
:1002E000039300F055FE002842D1012301A920000C
:1002F000019300F04DFE002837D1022301A9200010
:10030000019300F045FE00282CD10A2301A920000A
:10031000019300F03DFE002821D10B2301A920000C
:10032000019300F035FE002816D10C2301A920000E
:10033000019300F02DFE00280BD10D2301A9200010
:10034000019300F025FE002801D000F051FA04B01E
:1003500010BD00F04DFAF0E700F04AFAE5E700F0D2
:1003600047FADAE700F044FACFE700F041FAC4E7D1
:1003700000F03EFAB9E700F03BFAA8E720000020C1
:100380000024014010B5040088B01422002103A805
:1003900003F0A0F81E4B22689A4201D008B010BDAD
:1003A00080201C4B800099690324014399619A695C
:1003B000024080200092009A59690003014359616C
:1003C00080215A69890202400192019A5A691248B1
:1003D0000A435A615B6904940B400293029B0F230A
:1003E00003A9039300F026FF072390200393002323
:1003F00003A9C0050593049400F01CFF002203210B
:100400000C2000F085FE0C2000F0C0FEC6E7C046C0
:10041000002401400010024000080048F0B5DE460C
:1004200057464E464546E0B58BB01422002105A83C
:1004300003F050F880205E4B000359695D4D014385
:1004400059615A690024024080200092009A59693B
:10045000C003014359615A6901260240802001927C
:10046000019A59698002014359615A690227024081
:1004700080200292029A5969C00201435961802189
:100480005A69490302400392039A5A6928000A43B1
:100490005A615B6900220B4004934749049B01F0B9
:1004A0001BF8C0235B009B46444B594618000122B1
:1004B000984601F011F8424B0022180004219A4698
:1004C00001F00AF801222800402101F005F83D4B17
:1004D00005A905930323994640460693079400F027
:1004E000A9FE394B902005934B4605A9C0050693FC
:1004F000079400F09FFE432305A928000593069664
:100500000797089400F096FE242305A92800059378
:1005100006960796089400F08DFEC0239B01059374
:100520002A4B05A928000693079600F083FE802336
:1005300005A9DB01280005930796069400F07AFED2
:1005400080231B0205934B4605A9280006930794B8
:1005500000F070FE5B4605A9404605930696079796
:10056000089400F067FE042305A9504605930696FB
:100570000796089400F05EFE1823103605A928009F
:10058000059306960794089400F054FE802305A96D
:100590009B002800059306960797089400F04AFEF2
:1005A0000BB03CBC90469946A246AB46F0BDC04657
:1005B00000100240000400483F020000000800480C
:1005C000000C0048303E0000B899000000001110F7
:1005D00010B5144B144C01222360144B20006360AF
:1005E0000023E260A36023616361A361E36123628E
:1005F00000F08EFF002811D10021200001F04AF800
:10060000002808D10021200001F084F8002801D042
:1006100000F0EEF810BD00F0EBF8F3E700F0E8F8BA
:10062000EAE7C046005400406C0000200E0900209C
:1006300010B5144B144C01222360144B200063604E
:100640000023E260A36023616361A361E36123622D
:1006500000F05EFF002811D10021200001F01AF8FF
:10066000002808D10021200001F054F8002801D012
:1006700000F0BEF810BD00F0BBF8F3E700F0B8F8EA
:10068000EAE7C04600580040B80000205D3E302038
:1006900010B504008AB01422002105A802F01AFF48
:1006A0002368264A934226D0254A934201D00AB0B5
:1006B00010BD8021234CC902626923480A4362614C
:1006C000636903220B400393039BC0231B01059323
:1006D000122305A90693113B07930892099300F092
:1006E000A9FD8021E269C9030A43E261E3690B4085
:1006F0000493049BDBE78021124CC9026269124813
:100700000A436261636903220B400193019BC0238A
:100710005B0005936F3BFF3B069305A9113B0793D5
:100720000892099300F086FD8021E26989030A435B
:10073000E261E3690B400293029BB8E7005400407A
:1007400000580040001002400004004810B596B068
:10075000302200210AA802F0BDFE1022002101A8CB
:1007600002F0B8FE1422002105A802F0B3FE132304
:100770000A93123B0B930D930F9380235B0210247B
:10078000139380230E9410945B030E3C0AA81294DA
:10079000149301F003F8072302940024012101A817
:1007A00001930394049401F013FB212305A80593FE
:1007B0000794089401F032FC16B010BD10B500F09B
:1007C000FBF9FFF7C3FFFFF729FEFFF75FFD00F01E
:1007D00055F9FFF72DFF00F0B7F800F0FBF8FFF731
:1007E000F7FE0021014802F02BF9FEE7040100208A
:1007F0007047C0467047C04601220D4B00B599694D
:10080000022011439961996983B00A4080210092C6
:10081000009ADA6949050A43DA61DB6900220B4074
:10082000019303214042019B00F072FC03B000BD24
:10083000001002407047C046FEE7C04610B500F009
:10084000CBF910BD10B5024800F010FB10BDC0463A
:100850002000002010B5024802F074FD10BDC04613
:1008600084010020084B026882B09A4201D002B095
:1008700070470223054AD1691943D161D2691340F7
:100880000193019BF3E7C0460004004000100240C2
:10089000084B026882B09A4201D002B070478020B3
:1008A000054A800291690143916193690340019374
:1008B000019BF2E7004401400010024010B5040023
:1008C00088B01422002103A802F004FE23681A4A0B
:1008D00093421AD0194A934201D008B010BD80202B
:1008E000174A8002516901435161536903A90340CA
:1008F0000293029B4023902003933E3B0493C00548
:100900000333079300F096FCE7E780200C4A0003CE
:10091000516901435161536903A903400193019B4C
:10092000402303933E3B049305930648013306930B
:1009300000F080FCD1E7C0460004004000440140C4
:10094000001002400008004810B58AB008220021BB
:1009500001A802F0BFFD1C22002103A802F0BAFD8D
:100960001A4C1B4B40222360022363600023FF329A
:10097000A360236120008033E260A36101F03EFEAA
:10098000002820D1002301A920000193029302F046
:10099000B7F8002814D1602303935F330493002336
:1009A000002203A920000593079301F019FF0028F6
:1009B00001D0FFF71DFF2000FFF780FF0AB010BD38
:1009C000FFF716FFE7E7FFF713FFDBE7040100205F
:1009D0000004004010B58EB01C220021684602F0D1
:1009E00079FD1C22002107A802F074FD214C224B46
:1009F0002000236000236360A360E36023616361E0
:100A0000A36101F085FD002831D1200001F0F6FD41
:100A1000002829D16023009300230022694620008A
:100A200001930293039304930593069301F0D8FE78
:100A3000002816D180220023920107A920000793E5
:100A4000089309930A930B930C920D9302F0B2F85A
:100A5000002801D0FFF7CCFE2000FFF72FFF0EB0DB
:100A600010BDFFF7C5FEE5E7FFF7C2FED2E7FFF7CF
:100A7000BFFECAE744010020004401400B480C4B74
:100A800010B50360E1235B0243600C220023426146
:100A90008360C36003618361C3610362436202F0E8
:100AA00069FB002801D0FFF7A3FE10BD84010020E0
:100AB0000038014010B5040088B01422002103A8BA
:100AC00002F008FD174B22689A4201D008B010BD11
:100AD0008020154BC00199690143996180219A6971
:100AE000890202400192019A5A6990200A435A6190
:100AF0005B69C0050B400293029BC023DB0003939C
:100B0000022304930133069303A9023B079300F0E9
:100B100091FB002203211B2000F0FAFA1B2000F0B9
:100B200035FBD3E700380140001002400121134B90
:100B300013481A680A431A605A6802405A601A68D1
:100B4000104802401A601A680F4802401A605A683A
:100B50000E4802400F205A60DA6A8243DA621A6B4A
:100B60000B48024080201A631A6B02431A635A6BC7
:100B70008A435A6300229A607047C04600100240C0
:100B80000CB8FF08FFFFF6FEFFFFFBFFFFFFC0FFF3
:100B90006CFEFFFF10B5040001F02AFAFA2189006B
:100BA000FFF7BEFA00F006FB0120002221004042C0
:100BB00000F0AEFA002010BD1021064A10B51368EF
:100BC00003200B431360FFF7E5FFFFF715FE00203E
:100BD00010BDC04600200240024A13680133136072
:100BE0007047C046F4010020014B18687047C046AA
:100BF000F4010020F8B5041E00D107E1914B026812
:100C00009A4204D074219048FF31FFF7F3FD6368E6
:100C10008E4A134208D080221206934204D0BA2191
:100C200089484900FFF7E6FD1823A2689A4304D0DB
:100C300076218548FF31FFF7DDFD2023E2689A43E6
:100C400004D0BB2180484900FFF7D4FD2369013B54
:100C5000012B04D978217C48FF31FFF7CBFD236AB3
:100C6000012B04D9BC2178484900FFF7C3FD636A12
:100C7000012B04D97A217448FF31FFF7BBFD744B77
:100C8000E26A1A4204D0BD216F484900FFF7B2FD65
:100C9000A36A4022190091430CD01900C039914336
:100CA00008D0C222FF32934204D07C216648FF3133
:100CB000FFF7A0FD236B012B04D9BE216248490038
:100CC000FFF798FD04226369043B934304D07E211F
:100CD0005D48FF31FFF78EFD636B012B04D9BF2107
:100CE00059484900FFF786FDA369012B04D98021EB
:100CF0005548FF31FFF77EFDE369012B04D9C02180
:100D000051484900FFF776FD636C002B67D0636C98
:100D1000DB065ED4042023689A68104059D1626CC7
:100D20004C490A400631FF310A4362640322996844
:100D30000A40012A5AD01821DA688A43A1680A4376
:100D4000DA601A696168920092080A431A61DA68E7
:100D50004149266A0A40DA60A26977039103E26991
:100D6000D2031143626B013A551EAA411503E26892
:100D7000114322693943022A50D0226B52000A43A0
:100D8000616A2A430243012942D0C220A16AFF308E
:100D9000814202D0E06A01430A43D968A56B11433E
:100DA000D960802149058D4227D0691E062924D9A2
:100DB000DB682A490B409A4232D01222636C012030
:100DC0009343023A13436364A36C0F3A1343A3643F
:100DD00004E010220120636C13436364F8BD4022D9
:100DE000A3642000A354FFF7CDFA90E719680A42E4
:100DF000ADD1DA6812049ED5A9E707215869884366
:100E000058615869294001435961D1E70120E5E75C
:100E1000002E0FD1802149020A43B6E70420ACE737
:100E200000230322A364636C00209343023A13431C
:100E30006364D3E72025606C28436064A06C0143A1
:100E4000A164A2E70024014038350008FFFFFFBF7E
:100E5000FFF3FFFFFDFEFFFF1902FEFFE7FF3F83E9
:100E60007047C0467047C0467047C046434B026853
:100E700070B504009A4203D041494248FFF7BAFCDA
:100E8000236A012B03D940493E48FFF7B3FC0422F3
:100E90006369043B934304D0AF213A48C900FFF78C
:100EA000A9FC0422236819680A424AD059680A42F8
:100EB00047D0626CD20604D48022616C92000A434F
:100EC0006264C022D9681201114213D1226A002A39
:100ED00010D11A6812070DD59A68520744D40C2114
:100EE0005A688A435A60636C284A13400432FF32BE
:100EF000134363642000FFF7B3FF0C2223681A60DA
:100F000080251A68154202D05A68154221D1102254
:100F100019680A4214D059680A4211D0626B012A3A
:100F200002D0DA68D20709D50221A26C20000A4358
:100F3000A26410221A60FFF797FF236810221A603C
:100F400070BD082219680A42DAD059680A42D7D01F
:100F5000AFE78023626C5B02134363642000FFF7FA
:100F600081FF23681D60D2E72022636C1343636412
:100F7000A36C1F3A1343A364BCE7C046002401409E
:100F8000760500003835000877050000FEFEFFFFFB
:100F9000002330B583B001930268504B04000D006C
:100FA0009A4203D04E494F48FFF724FC2B68112B7F
:100FB00057D84D4A6B6894466344012B03D94B497B
:100FC0004848FFF717FC8022A36B520593420CD0D0
:100FD000013B062B09D9AB68934206D0013B062B97
:100FE00003D943493F48FFF705FC4023E25C022058
:100FF000012A2BD00122E25423689968490727D49B
:101000003C49686888423BD02968986A8A40024314
:1010100080209A62A26B400582420FD0013A062AD4
:101020000CD907225869AD681040854206D058692E
:101030009043586158692A4002435A610B00103BA3
:10104000012B13D9002000224023E25403B030BD0D
:1010500020220120636C1343636400224023E25486
:10106000F4E725491F48FFF7C5FBA2E7234B1868A3
:10107000102918D08022D20302431A600020ECE726
:101080002868996A8240914399620300103B012BC2
:10109000D8D81A4B1B6810281DD0194A1340174A7C
:1010A00000201360CFE78022120402431A60154B20
:1010B00015491868FFF734F88300181840000190AC
:1010C000019B002BBED0019B013B0193019B002B98
:1010D000F9D10020B7E70D4AE0E7C04600240140FF
:1010E000510600003835000800F0FFFF53060000ED
:1010F00057060000011000005206000008270140BA
:10110000FFFFBFFF0000002040420F00FFFF7FFFF6
:1011100070B506000C00032903D99B211848FFF77E
:1011200069FB002E14DB174A03209446FF22B30804
:1011300030401600C025C000A401864022408240F5
:101140009B006344AD005959B1430A435A5170BDE5
:10115000FF21F0B20C4A0F23032694460A000340F5
:101160003040C000A401824021408140083B9B08E0
:101170009B006344DD6995432943D961E7E7C04695
:10118000AC35000800E100E000ED00E010B5041E01
:1011900006DB1F20012320408340044A136010BD5A
:1011A000AB210348FFF726FBF3E7C04600E100E070
:1011B000AC3500080A4A431E012093420ED8C021D4
:1011C000084A09485360036A09061B021B0A0B43BD
:1011D0000362002300209360073313607047C0460A
:1011E000FFFFFF0010E000E000ED00E0212370B5FC
:1011F000C25C022A03D01D3B8363012070BD0E2414
:101200000268056C1168A1431160012114688C43C8
:1012100014600C00AC40C26B5460C1540022202307
:10122000C254436B002B02D098470020E6E7002011
:10123000E4E7C046F0B54E46DE46574645469023A5
:10124000E0B5894683B00600DB0598420FD0964B87
:1012500098420CD0954B984209D0954B984206D0B5
:10126000944B984203D0C1219348FFF7C3FA4B46F1
:101270001B681A0400D1CDE01B0C00D0CAE04B461D
:101280005B68032B14D91A00113A012A10D98B4933
:101290008B4A8C461A408B4962440A4208D08A4ADB
:1012A000944663440B4203D0C3218348FFF7A2FA5C
:1012B0004B469B68022B00D9EDE04B461B6800258E
:1012C000002B00D1D4E07C4A934669E06B009A463B
:1012D000032351461F008F401340FF438B4061465C
:1012E00030680139384003433360012900D896E063
:1012F0004946F3683B408F6851468F401F43F76073
:10130000D30047D50121714B986908439861704813
:101310009B698446032007000B400193019BAB08A7
:101320009B002F406344BF0084460C30B8409C684B
:1013300084439020C005864200D1AAE05A488642E4
:1013400000D1A4E059498E4200D1A9E058498E420B
:1013500000D19BE00521B940214399605D4B19689C
:101360004346D843D30300D57FE00140594B196071
:101370005968930376D40140564B59609968D3025B
:101380006DD40140534B9960DB68920263D40340F3
:10139000504AD3604B461B681A000135EA4067D0BB
:1013A00001241A00AC4022409046F5D04B465A68C2
:1013B0001023110099438C46022987D19023DB0525
:1013C0009E420FD0384B9E420CD0384B9E4209D0E3
:1013D000374B9E4206D0374B9E4203D0D32136482E
:1013E000FFF708FA4B461B69062B48D807210F2741
:1013F000294089008F408B40EA089200B218106A99
:10140000B843034313624B465A68102311009943B3
:101410008C465BE7C2212848FFF7ECF92FE74B46E3
:10142000DB68012B09D9032B07D0E8215846FFF7C9
:10143000E1F94B464A46DB68526850468340B16842
:1014400039400B43B360D306DB0FAB407168A14357
:101450000B4373604CE742461A43130098E7434638
:1014600019438FE74346194386E7434619437DE70F
:1014700003B03CBC90469946A246AB46F0BDD42191
:101480000D48FFF7B7F94B461B69AFE76146B94016
:1014900062E7002160E7C4210748FFF7ABF90CE7DA
:1014A0000221B94058E7C04600040048000800483F
:1014B000000C004800140048243600080000EFEF3C
:1014C000FFFFDFFFFFFFFEFF0000DFEF0010024025
:1014D000000001400004014070B506000C0015003A
:1014E00000290CD0012D06D9AE210848FF31FFF7A5
:1014F00081F9B46170BD002DFBD1B462FAE7D62149
:1015000002484900FFF776F9ECE7C04624360008A8
:1015100010B5041E00D1A8E00368554A934207D0D5
:10152000544A934204D09E215348FF31FFF762F999
:10153000524BA2689A4200D98BE0E368013B012B31
:1015400004D9A0214C48FF31FFF754F94C4B2269D4
:101550001A4263D16369FF2B68D8A369072B00D9AE
:101560006DE0484BE2691A4204D0A4214248FF31A1
:10157000FFF740F9444B226A1A423FD14123E35C12
:10158000DBB2002B44D0242241230121E254236802
:101590001A688A431A6061683C4A0A401A619A686C
:1015A00037490A40E1689A60012958D08422A0682E
:1015B000120202439A60022947D05968344A002037
:1015C0000A435A60DA682E490A40DA606169226982
:1015D0000A43A16909020A43DA60216AE2690A43FF
:1015E00001211A601A680A431A60002341221F3140
:1015F0006364A15401322363A35410BDD2211E4859
:101600004900FFF7F7F84123E35CDBB2002BBAD1C6
:1016100040222000A354FFF73BF8B4E7D02116483E
:101620004900FFF7E7F86369FF2B96D9A22112481A
:10163000FF31FFF7DFF8A369072B00D891E7D1212D
:101640000D484900FFF7D6F88BE7802212015A6057
:10165000B3E7CF2108484900FFF7CCF86DE78022B7
:10166000A16812020A439A60A7E70120C5E7C046B5
:10167000005400400058004098360008FF03000066
:10168000FF7FFFFFFFFFF7FFFFFFFDFFFFFFFFF003
:1016900000800002F8B51B4A036804000D00934265
:1016A00006D0194A934203D072211848FFF7A2F8D6
:1016B000174B1D4203D073211448FFF79BF84122BA
:1016C000A35C0220DBB2202B00D0F8BD4026A15D38
:1016D0000129FAD02421A15423398C4620680768B7
:1016E0008F43076007680A490F4007600168294374
:1016F00065460160016829430160A354002300206E
:10170000A355E2E700540040005800400C370008A1
:10171000FFEFFFFFF8B51D4A036804000D00934278
:1017200006D01B4A934203D0A0211A48FFF762F863
:101730000F2D06D84122A35C0220DBB2202B0AD059
:10174000F8BD1448A121FFF755F84122A35C0220FF
:10175000DBB2202BF4D14026A15D0129F0D0242159
:10176000A15423398C46206807688F4307600768B7
:1017700009490F4029026546394301600168294340
:101780000160A35400230020A355D9E70054004072
:10179000005800400C370008FFF0FFFFF0B5CE46C0
:1017A000474680B5040083B0002800D176E2236864
:1017B000002B00D1ADE0DA0600D1B7E1DA0739D568
:1017C0006368012B06D9052B04D01A21C348FF31C9
:1017D000FFF710F80C23C2494A681A40042A00D1C6
:1017E000B4E14A681340082B00D1A6E16368012BDD
:1017F00000D11EE2002B00D1B3E1052B00D16EE237
:10180000B74BB8491A680A401A601A68B6490A40C4
:101810001A60FFF7E9F980250700B14EAD0205E037
:10182000FFF7E2F9C01B642800D9CEE133682B42F0
:10183000F6D023689A074AD5E368012B04D94E21D4
:10184000A648FF31FEF7D6FF23691F2B00D9D1E14F
:101850000C23A34A51680B422BD051680B40082B34
:101860001FD0E3689E4D002B00D1E9E101222B68D7
:10187000022613432B60FFF7B7F9070005E0FFF7D7
:10188000B3F9C01B022800D99FE12B681E42F6D095
:10189000F8212A6823698A43DB0013432B602368FD
:1018A00015E05368C0225202134080221202934274
:1018B000D7D18B4B1B689B0700D56BE1F82088497B
:1018C00023690A68DB00824313430B6023681A070D
:1018D0001FD5E369012B05D9C72180484900FEF7D0
:1018E00089FFE3697E4D002B00D170E101226B6A14
:1018F000022613436B62FFF777F9070005E0FFF755
:1019000073F9C01B022800D95FE16B6A1E42F6D052
:1019100023685A074AD5A368012B06D9052B04D0A2
:10192000DD216E484900FEF765FF802200206C4BE8
:101930005205D9698046114208D1D9691143D9614C
:10194000DB691A400192019B012398468027674E6C
:101950007F0033683B4200D122E1A368012B00D114
:101960002EE1002B00D14BE1052B00D1E3E1012159
:101970005B4B1A6A8A431A621A6A03318A431A62F3
:10198000FFF732F9564F81460226594D06E0FFF720
:101990002BF94B46C01AA84200D916E13B6A1E42F9
:1019A000F5D04346012B00D192E12368DB062CD50C
:1019B0006369012B07D9053300D175E180214748C0
:1019C0008900FEF717FFA3691F2B00D97BE163692C
:1019D000012B00D191E1053300D18CE10422404D6F
:1019E00002266B6B13436B636B6B033A93436B631E
:1019F000FFF7FAF8070005E0FFF7F6F8C01B02282A
:101A000000D9E2E06B6B1E42F6D1236A022B00D9AB
:101A100029E1002B00D183E00C22314D69680A4096
:101A2000082A00D19BE0022B00D023E1314A636AEF
:101A30009446314A6344134203D030492748FEF7A5
:101A4000D9FEA26A28492E4B1140134013D08020A2
:101A5000400383420FD08020800383420BD0C023F9
:101A60009B03994207D0E0239B039A4203D0254968
:101A70001A48FEF7BFFEE36A0F2B00D965E1184D47
:101A8000214A2B68802613402B60FFF7ADF8B6047F
:101A9000070005E0FFF7A8F8C01B022800D994E072
:101AA0002B683342F6D10F22EB6A9343E26A134369
:101AB000EB62616AA36A6A680B43144980240A4096
:101AC00013436B6080232A685B0413432B60FFF78A
:101AD0008BF8034D0600A4041FE0C04684370008BD
:101AE00000100240FFFFFEFFFFFFFBFF0070004001
:101AF000881300000080FFFFFF7FFFFF7D020000D2
:101B0000FFFFF3FF7E020000FFFFFFFEFF7FC2FF2B
:101B1000FFF76AF8801B022857D82B682342F7D0BA
:101B2000002003B00CBC90469946F0BD14218948B2
:101B3000FF31FEF75FFE236840E6C0224B68520289
:101B4000134080225202934200D04FE6824B1B6822
:101B50009B0300D46DE66368002B00D069E601208A
:101B6000DFE77D4D7D4A2B68802613402B602B6874
:101B70007B4AB60213402B60FFF736F8070004E0FB
:101B8000FFF732F8C01B64281FD82B683342F7D107
:101B900023684FE6E368012B00D18FE60120C0E700
:101BA00033683B433360FFF71FF8050004E0FFF79D
:101BB0001BF8401B642808D833683B42F7D0CCE6BA
:101BC00065490A6A13430B62DAE60320A9E701229A
:101BD0006B6A022693436B62FFF706F8070004E086
:101BE000FFF702F8C01B0228EFD86B6A1E42F7D13C
:101BF00023688EE6A72157484900FEF7FBFD27E63C
:101C00000122554E0227336A564D93433362336A9D
:101C1000033293433362FEF7E7FF814605E0FEF7A8
:101C2000E3FF4B46C01AA842CFD8336A1F42F6D111
:101C3000B7E68023484A5B0211680B431360E8E56E
:101C400001222B68022693432B60FEF7CDFF07008D
:101C500004E0FEF7C9FFC01B0228B6D82B681E425D
:101C6000F7D1236833E69D213A488900FEF7C2FD8B
:101C7000236ACEE62B683C4A2C0013402B60FEF70B
:101C8000B3FF80250600AD0404E0FEF7ADFF801B26
:101C900002289AD823682B42F7D141E789212D48A1
:101CA0004900FEF7A7FD82E5A2691F2A0BD8042090
:101CB0002949D2004B6B83434B634B6BF430834316
:101CC00013434B63A1E629492248FEF793FD7EE6C4
:101CD000214A2749D3690B40D361236866E68022F5
:101CE0001D4BD20219680A431A60802219685202F9
:101CF0000A431A608DE5A269D9E70421164D022630
:101D00006A6B0A436A636A6B13436B63FEF76CFF8B
:101D1000070005E0FEF768FFC01B022800D954E762
:101D20006B6B1E42F6D0F8216A6BA3698A43DB0015
:101D300013436B6369E60421074B1A6A0A431A626C
:101D40001A6A03390A431A621AE60A490148FEF779
:101D500051FD94E68437000800100240FFFFFEFFAB
:101D6000FFFFFBFF88130000FFFFFFFE01020000E2
:101D7000FFFFFFEF7F02000070B5124B88B0180024
:101D80006A4670C870C200681033106004AA100060
:101D900070CB70C01B680C4C03600C2360686946F4
:101DA0000340082B0CD1E56A0733800C18402B4008
:101DB0000C5CD15C0548FEF7B3F9604308B070BD18
:101DC0000248FBE7143500080010024000127A00B8
:101DD000F8B5CE464746040080B50D00002800D176
:101DE000BAE023685B0700D18BE0012D11D9B72140
:101DF00071488900FEF7FEFC0121704A13681368E0
:101E00008B431D431560136801200CBC9046994616
:101E1000F8BD0121694A13680B409D4200D9C0E01A
:101E200023689A070AD5A1688022080090436DD1E3
:101E3000F02663484268B2430A434260DB0728D574
:101E40006368022B7FD85E4A1268012B00D180E0C4
:101E5000022B73D09207D7D50321594E72688A435B
:101E600013437360FEF7C0FE63680700012B78D050
:101E7000022B00D185E00C239846524B994604E092
:101E8000FEF7B2FEC01B48455BD8424673681A4253
:101E9000F6D10121494A13680B409D4205D21368CF
:101EA0008B43136013681942AED123685B0718D5C2
:101EB000E268454B1A420ED0A021444BC9001340A2
:101EC0008B4208D0C023DB009A4204D040493A48F4
:101ED000FEF790FCE2683A493E484B6803401343E2
:101EE0004B60FFF749FF364B3B4A5B681B061B0FF5
:101EF000D35CD840394B18600320FEF74BFE00201E
:101F000083E737492C48FEF775FC6EE7202208006E
:101F1000904390288CD0402208009043A02887D07E
:101F2000102208009043C02882D0F02980D02D498B
:101F30002148FEF75FFCA168236879E792018BD402
:101F400062E7032061E728491B48FEF753FC6368FA
:101F500079E7920380D457E724491748FEF74AFCF3
:101F60003FE70B339846174B994604E0FEF73CFEDB
:101F7000C01B4845E5D8424673681340042BF5D191
:101F800087E70A3398460F4B994604E0FEF72CFE8C
:101F9000C01B4845D5D8424673681340082BF5D17D
:101FA00077E713688B432B431360136819408D4206
:101FB00000D135E728E7C0468437000800200240FA
:101FC0000010024088130000FFFBFFFFFFFDFFFF32
:101FD00063030000FFF8FFFFFC340008000000204E
:101FE000DB020000F3020000FA020000DA02000047
:101FF000014B18687047C04600000020044B054A9A
:102000005B685B055B0FD35C034A1068D840704780
:10201000001002400C35000800000020F0B5CE464C
:10202000474680B503685C4A83B00400934200D9F8
:1020300076E0DA0342D5594B62681A4203D0842114
:102040005748FEF7D7FB80220020564B5205D9692E
:102050008046114208D1D9691143D961DB691A4020
:102060000192019B0123984680264F4D76002B68F4
:10207000334200D171E0C0214A4D89002A6A0A40EA
:1020800063D0606801408A420ED08022296A2E6A9D
:10209000520232432A622A6A404B444E0B4032407D
:1020A0002A622B62CB0741D43E4A3C49136A0B405B
:1020B000034313624346012B5FD02368DA0708D538
:1020C000A16803295FD803253648026BAA430A4357
:1020D00002639A0610D5E16810220800904305D0EB
:1020E000EF212F48FEF786FBE168236810252D4875
:1020F000026BAA430A43026300209B030BD52269AB
:1021000080231100994322D1802026490B6B834301
:10211000002013430B6303B00CBC90469946F0BDFE
:102120007E211F48FEF766FB236882E7FEF75CFD11
:102130001F4B07000226994604E0FEF755FDC01B21
:10214000484527D82B6A1E42F7D06068ACE7FA21D1
:102150001348FEF74FFB2269D6E72B6833432B6009
:10216000FEF742FD070004E0FEF73EFDC01B6428B9
:1021700010D82B683342F7D07DE7D3690D490B4067
:10218000D36123689AE7CB210548FEF733FBA168AA
:10219000236898E70320BEE721000300FFFCFFFF50
:1021A000F83700080010024000700040FFFFFEFFFB
:1021B00088130000FFFFFFEF0122F0B5C646036A57
:1021C00000B593430362056A4368876998467323A1
:1021D0009F430B6804001F4302239D438B680E003E
:1021E0001D43324B984241D0314B98420ED0314B77
:1021F00098420BD0304B984208D0434663607368D6
:10220000A7616363256204BC9046F0BDF368002BB0
:1022100043D0082B26D029492948FEF7EBFA08239A
:102220009D43F3681D4304239D43204B9C4208D0EB
:102230001F4B9C4205D01F4B9C4202D01E4B9C4220
:10224000DBD1204BB2691A4219D172691E4B1A4276
:102250001DD141461D4B19400B00B1690B431A4378
:102260009046CAE70C2295431D43E1E7CB68002B5B
:1022700016D10C23B2699D43124B1A42E5D0144982
:102280000F48FEF7B7FA72690F4B1A42E1D01149B5
:102290000B48FEF7AFFA7269DBE70C239D43C7E7F3
:1022A000082BB8D10C2295431D43CAE7002C0140EE
:1022B00000400140004401400048014090120000ED
:1022C00070380008FFFDFFFFFFFEFFFFFFFCFFFF70
:1022D0009D1200009E120000F0B5C646036A2D4A0A
:1022E00000B513400362056A4368C66998467323C4
:1022F0009E430B6804001E43274B0F001D408B6854
:102300001B021D43254B984211D0254B98421FD0EC
:10231000244B9C421CD0244B9C4219D04346636002
:102320007B68E661E363256204BC9046F0BDCB6840
:102330000A321900FF32914304D01C491C48FEF7B1
:1023400059FAFB681B4A1B0215402B431A4D1D40CE
:10235000114BBA691A4213D17A690E4B1A4209D14C
:102360004046BB6915491B010840034312011A434B
:102370009046D3E712490E48FEF73CFA7A69EFE738
:1023800010490B48FEF736FA7A69024B1A42E7D039
:10239000F0E7C046FFFEFFFFFFFDFFFF002C0140FE
:1023A0000040014000440140004801402513000066
:1023B00070380008FFF7FFFFFFFBFFFFFFCFFFFFB5
:1023C0003313000032130000F0B5C646036A204AFA
:1023D00000B513400362056A4368C66998461D4B01
:1023E00004001E400B680F001B021E431A4B1D40C9
:1023F0008B681B031D43194B984211D0184B984210
:102400000ED0184B98420BD0174B984208D0434639
:1024100063607B68E6612364256204BC9046F0BD7E
:102420007B69124A134206D14146114A9B01114071
:102430000B439846EBE70F490F48FEF7DBF941469F
:102440007B690B4A9B0111400B439846DFE7C0466E
:10245000FFEFFFFFFF8CFFFFFFDFFFFF002C0140BE
:10246000004001400044014000480140FFFEFFFFE2
:10247000FFBFFFFF70130000703800081D4A03689B
:1024800090421AD01C4A90422BD01C4A90422CD029
:102490001B4A904215D01B4A904212D01A4A9042D1
:1024A0000FD0802293434A69134303608B68C36251
:1024B0000B688362012343617047702293434A682B
:1024C0001343124A1340CA681343802293434A6954
:1024D000134303608B68C3620B6883620B690363F9
:1024E000E8E7702293434A681343084A1340CA68D6
:1024F0001343D6E7002C01400004004000200040B8
:10250000004001400044014000480140FFFCFFFF43
:1025100070B5041E5BD003682E4A934218D02E4A31
:10252000934215D02D4A934212D02D4A93420FD098
:102530002C4A93420CD02C4A934209D02B4A934206
:1025400006D02B4A934203D0D4212A48FEF752F9F1
:10255000A3681022190091430AD040221900914328
:10256000202905D0402B03D0D5212248FEF742F97F
:102570002369214A134207D080229200934203D05C
:10258000D6211C48FEF736F98023A2699A430FD161
:102590003D23E35CDBB2002B13D002233D252068F2
:1025A0006355211DFFF76AFF01230020635570BDAD
:1025B000D7211048FEF71EF93D23E35CDBB2002B68
:1025C000EBD13C222000A354FEF762F9E5E701209D
:1025D000EDE7C046002C0140000400400010004020
:1025E0000014004000200040004001400044014031
:1025F0000048014070380008FFFEFFFF70B5041E60
:102600005CD003682E4A934218D02E4A934215D0CC
:102610002D4A934212D02D4A93420FD02C4A934216
:102620000CD02C4A934209D02B4A934206D02B4A15
:10263000934203D02A492B48FEF7DCF8A368102206
:10264000190091430AD0402219009143202905D056
:10265000402B03D024492348FEF7CCF82369234AB2
:10266000134207D080229200934203D020491D4894
:10267000FEF7C0F88023A2699A430FD13D23E35CA3
:10268000DBB2002B14D002233D2520686355211DA9
:10269000FFF7F4FE01230020635570BDFA211148B5
:1026A0008900FEF7A7F83D23E35CDBB2002BEAD1FB
:1026B0003C222000A354FEF7D5F8E4E70120ECE724
:1026C000002C0140000400400010004000140040B5
:1026D000002000400040014000440140004801400B
:1026E000E503000070380008E6030000FFFEFFFF6E
:1026F000E70300001022F0B5C646036A00B5934315
:102700000362056A436886699846294B04001E40A7
:102710000B680F001B021E4320239D438B681B0187
:102720001D43244B984211D0234B98421ED0234B7B
:102730009C421BD0224B9C4218D0434663607B686E
:10274000A661A363256204BC9046F0BDCB68083A3D
:102750001900914304D01B491B48FEF74BF8FB6856
:1027600080221B0195431D4340239D43174BBA69AB
:102770001A4213D17A69164B1A4209D14046BB69F5
:1027800014499B000840034392001A439046D4E743
:1027900011490D48FEF72EF87A69EFE70F490A480C
:1027A000FEF728F87A690A4B1A42E7D0F0E7C046EC
:1027B000FF8CFFFF002C014000400140004401401D
:1027C00000480140DA12000070380008FFFDFFFFEA
:1027D000FFFEFFFFFFF3FFFFE9120000E812000019
:1027E00070B515003C22835C04000E000220012B12
:1027F00051D00123A354182D4ED85F4AEA40934389
:102800004AD1102332689A43602A03D05B495C485E
:10281000FDF7F0FF0223B2689A4304D0C221584862
:102820000901FDF7E7FF042332699A4303D05549B4
:102830005348FDF7DFFF02223D23E254042D30D040
:1028400000D86DE0082D4ED00C2D1DD120684E4BC8
:10285000984207D04D4B984204D049484C49FDF767
:10286000C9FF20683100FFF7AFFD80222368120105
:10287000D9690A43DA61DA6946490A40DA6132699C
:10288000D96912020A43DA6101223D23E25400228F
:102890000020013BE25470BD3F493948FDF7AAFFD3
:1028A000AFE72068384B98420AD0384B984207D09F
:1028B0003A4B984204D032483949FDF79BFF2068D3
:1028C0003100FFF717FF80222368120199690A433C
:1028D0009A619A692F490A409A613269996912028C
:1028E0000A439A61D0E72068274B984207D0274BCC
:1028F000984204D022482B49FDF77CFF2068310024
:10290000FFF7EAFC08212368DA690A43DA61DA6929
:1029100004398A43DA61DA6931690A43DA61B3E773
:10292000002DB1D12068184B984213D0174B984214
:1029300010D01D4B98420DD0184B98420AD01B4B1B
:10294000984207D01A4B984204D00D481949FDF718
:1029500051FF20683100FFF72FFC082123689A6996
:102960000A439A619A6904398A439A619A6931697A
:102970000A439A6188E7C046111100011F0C00004C
:1029800070380008210C0000002C014000040040B9
:10299000560C0000FFFBFFFF1E0C00000040014032
:1029A000380C0000470C00000020004000440140AB
:1029B00000480140290C0000174B70B504000E00C0
:1029C0001500984212D0154B98420FD0144B9842E4
:1029D0000CD0144B984209D0134B984206D0134B9D
:1029E000984203D012491348FDF704FF182E0DD961
:1029F00011491048FDF7FEFE0122B240B540236A9E
:102A000093432362236A1D43256270BD0B4BF34041
:102A1000DB07F1D4ECE7C046002C01400004004085
:102A200000200040004001400044014000480140B7
:102A30005E150000703800085F15000011110001DC
:102A400070B5274B040000680D0098423ED0254B1E
:102A500098423BD0244B984208D0244B98421ED039
:102A6000234B984202D0234B98421CD1002D1AD1FF
:102A700001222900FFF7A0FF2368194A93421FD0C3
:102A80001A4A93421CD01A4A934219D0194A9342C7
:102A900016D001211A6800200A431A6070BD042371
:102AA0000A009A43E4D014481449FDF7A3FE2068B5
:102AB00001222900FFF780FF2368094A9342DFD1F2
:102AC0008022596C12020A435A64E2E70C232A005E
:102AD0009A43CDD008480949FDF78CFE2068E7E706
:102AE000002C014000040040002000400040014054
:102AF00000440140004801407038000846040000CE
:102B00000368234A70B504000D0093420FD0214A98
:102B100093420CD0204A934209D0204A934206D0D7
:102B20001F4A934203D01F491F48FDF763FE30231D
:102B30002A689A4305D0402A03D01C491A48FDF759
:102B400059FE80236A689A431DD13C22A35C02206F
:102B5000012B17D03D262368A05559686E3081435C
:102B600059605968286801438020596099688143F9
:102B7000996099686868014399600123A35500230F
:102B80000020A35470BD0A490748FDF733FEDCE777
:102B9000002C0140000400400010004000140040E0
:102BA0000040014049060000E43800084A060000E1
:102BB0004B06000003683F4A70B504000D009342C5
:102BC0000DD03D4A93420AD03C4A934207D03C4A3A
:102BD000934204D0CE213B48C900FDF70BFE3A4B8F
:102BE0002A681A4260D1394B6A681A4257D1384B69
:102BF000AA681A4203D037493248FDF7FBFDEB685B
:102C0000FF2B3AD8344B2A691A423ED1334B6A69BA
:102C10001A4203D032492B48FDF7ECFD314BAA692B
:102C20001A4237D13C22A35C0220012B24D03D2143
:102C3000274B6054E8680340A868034323480340D7
:102C40006868034320480340286803432248034040
:102C5000286903432148034068690343214803402E
:102C6000A869214D03432B4003432068436401239B
:102C7000635400230020A35470BD1C491148FDF784
:102C8000B9FD154B2A691A42C0D019490D48FDF704
:102C9000B1FDBBE717490B48FDF7ACFDC2E716498C
:102CA0000848FDF7A7FDA2E714490648FDF7A2FD75
:102CB00099E7C046002C014000400140004401401B
:102CC00000480140E4380008FFF7FFFFFFFBFFFF6B
:102CD000FFFCFFFF73060000FFEFFFFFFFDFFFFFBA
:102CE00076060000FFBFFFFFFF7FFFFF74060000B6
:102CF00075060000770600007206000071060000ED
:102D00007047C0467047C0467047C04600235A22ED
:102D100010B5406A8352083A8352FFF7F5FF10BDA1
:102D2000774B426870B504009A4200D97FE0802258
:102D3000A3685205934203D0724A134200D07BE04D
:102D4000714BE2681A4203D070497148FDF752FD99
:102D50002369704A134207D0C022D200934203D0A5
:102D60006D496B48FDF746FD63690C2219009143DC
:102D700048D1002B46D0694BA2691A4203D068495A
:102D80006348FDF737FD674B226A1A4203D0664954
:102D90005F48FDF72FFDE269644B1A4204D0644995
:102DA0005B48FDF727FDE2692069A36825680343B6
:102DB0006069296803435F4801400B4313432B605C
:102DC0006B685D49206A0B40E1680B436B60A36947
:102DD000A9680343594801400B43AB60584B9D42DF
:102DE00033D0584B9D4212D0574B9D420FD0574B7A
:102DF0009D420CD080231B029A4224D10023012043
:102E0000EB6070BD52494248FDF7F4FCB3E7802304
:102E10001B029A4249D0FFF7F1F861684B08181875
:102E2000FDF77EF90004000CE8600020E9E749495D
:102E30003748FDF7DFFC7AE747493548FDF7DAFC0C
:102E40007EE7002BE7D00120DBE7444B196B03231F
:102E50000B404349CB5C802109028A4237D0022BC8
:102E600011D0EED9042B12D0082BECD1802361684D
:102E70001B0248089C466044FDF752F90004000C10
:102E8000E8600020BDE76168364B4808F2E7FEF7CE
:102E900073FF61684B081818FDF742F90004000C35
:102EA000E8600020ADE7002BA8D1FFF7A7F8636822
:102EB00040005B08C0186168FDF732F925680F22F1
:102EC00003075B0F904303439BB2002098E7022B5C
:102ED0000ED0E8D9042B0FD0082B00D08EE780232A
:102EE00061685B0248089C466044FDF719F9E6E713
:102EF00061681D4B4808F6E7FEF73EFFD7E7C0467E
:102F0000808D5B00FFEFFFFFFFDFFFFF4808000041
:102F10005C390008FFFBFFFF49080000FFFCFFFFD2
:102F20004B080000FFF7FFFF4C080000FF7FFFFF8A
:102F30004D080000F369FFEFFFCFFFFFFFF4FFFF35
:102F4000003801400044004000480040004C004070
:102F50004A08000046080000470800000010024030
:102F60003435000800127A000024F400436A70B57A
:102F70000400FF2B00D982E0DA070AD5A16A664A6D
:102F8000114200D087E02068634D42682A400A431E
:102F900042609A070AD5E16A604A114200D081E096
:102FA00020685E4D42682A400A4342605A070AD5AB
:102FB000216B5B4A114200D07BE02068584D42688B
:102FC0002A400A4342601A070AD5616B554A1142EA
:102FD00000D075E02068534D42682A400A434260A1
:102FE000DA060AD5A16B504A114200D06FE0206882
:102FF0004D4D82682A400A4382609A0609D5E16BEA
:103000004A4A11426AD12068484D82682A400A43E0
:1030100082605A061FD52368454A934206D0454A26
:10302000934203D044494548FDF7E4FB236C002B51
:103030001ED080256D03AB4257D041493F48FDF774
:10304000D9FB22683F485368216C03400B4353600F
:10305000A94250D0636A1B0609D5A26C3A4B1A42AA
:1030600013D1216838484B68034013434B6070BD4F
:103070002268344953680B405360636AEBE7334975
:103080002E48FDF7B7FB636A76E731492B48FDF719
:10309000B1FBA26CE5E72F492848FDF7ABFBA16A1D
:1030A000636A70E72C492548FDF7A4FBE16A636A6F
:1030B00076E72A492148FDF79DFB216B636A7CE78F
:1030C00027491E48FDF796FB616B636A82E7254935
:1030D0001A48FDF78FFBA16B636A88E722491748FE
:1030E000FDF788FBE16B636A8DE72268154851683C
:1030F00001400B435360616C1C4B194205D01C49C5
:103100000E48FDF777FB616C22685368174803404F
:103110000B435360636A9EE7FFFFFDFFFFFFFEFF67
:10312000FFFFFBFFFF7FFFFFFFEFFFFFFFDFFFFF63
:103130000038014000440040D80800005C39000815
:10314000D9080000FFFFEFFFFFFFF7FFA90800000D
:10315000E6080000AE080000B5080000BC0800004A
:10316000C3080000CA080000D1080000FFFF9FFF4D
:10317000DE08000010B5041E5ED08369002B3ED02F
:103180000368304A93420DD02F4A93420AD02F4A07
:10319000934207D02E4A934204D097212D484900EC
:1031A000FDF728FB6923E35CDBB2002B3ED0242231
:1031B00069230121E2542268200013688B431360C5
:1031C000FFF7AEFD012837D0636A002B36D12368A4
:1031D00021495A6800200A4008215A609A688A43A7
:1031E0009A601A6807390A431A602022002368315E
:1031F000E3666254013162544832A35410BD03683F
:10320000104A9342CED0104A9342CBD00F4A9342F9
:10321000C8D00F4A9342C5D034210E48FF31FDF784
:10322000E9FA6923E35CDBB2002BC0D168222000FD
:10323000A354FDF73FFCBAE70120DFE72000FFF7CA
:1032400095FEC4E7003801400044004000480040BB
:10325000004C00405C390008FFF7FFFF6922825CE8
:1032600003000220212A00D0704731329A5A002AE6
:1032700011D0802299685201914217D0DA6C511C0A
:10328000D964127819680A8552215A5A0020013AE5
:1032900092B25A52E8E780211B6800201A688A43DC
:1032A0001A601A6840390A431A60DDE71A69002A71
:1032B000E4D1D96C18680A880231D205D20D028592
:1032C000D964E1E76A2310B5C35C222B07D008213B
:1032D0000224026893690B439361200010BD802291
:1032E0003A33C15A036884689B8C52019BB2944262
:1032F0001CD0426D0B40541C446513705A22835AF3
:103300000024013B9BB28352002BE6D103680C4999
:103310001A680A401A609A682331FF318A439A601A
:1033200020226A23C254FFF7EDFCD6E70269002A87
:10333000DFD1426D0B40138002324265DEE7C046AA
:10334000DFFEFFFF036870B5DA6904001968100733
:103350000FD1202010425AD198688020104202D00C
:10336000084200D07CE04020104201D0084267D1E2
:1033700070BD0125986828404FD00125154205D021
:10338000CE0503D51D62E66E3543E566022515427E
:103390004BD0002806D004261D62E56E3543E56655
:1033A000164246D1150703D58D0653D4002851D1B6
:1033B000E06E0028DCD02020104201D0084257D116
:1033C000E26E120703D440259A68154055D01A685A
:1033D0002C490A401A609A682331FF318A439A6067
:1033E0006A221F31A1549A68203111423CD09A6858
:1033F000606E8A439A60002836D0234B4363FDF702
:10340000F5FE0028B4D0606E436B9847B0E70842E1
:10341000A2D02000FFF756FFAAE790256D002942B1
:103420009BD001251542B1D0AAE75507BAD500288F
:10343000B8D0042502261D62E56E3543E566B1E786
:103440001A6882431A60202269232000E254FFF7A1
:1034500057FC8DE708251D62E06E2843E066A7E76C
:103460002000FFF7FBFE83E72000FFF74DFC7FE71E
:103470002000FFF727FF2368A2E72000FFF744FCA6
:10348000E56675E7DFFEFFFF0D2D000870B500262D
:103490000C4D0D4C641BA410A64209D1002600F06F
:1034A00021F80A4D0A4C641BA410A64205D170BD38
:1034B000B300EB5898470136EEE7B300EB58984756
:1034C0000136F2E7D0390008D0390008D0390008B9
:1034D000D439000803008218934200D17047197054
:1034E0000133F9E7F8B5C046F8BC08BC9E46704702
:0C34F000F8B5C046F8BC08BC9E4670470A
:1034FC000000000000000000010203040607080998
:10350C000000000001020304020304050607080979
:10351C000A0B0C0D0E0F1010010203040506070810
:10352C00090A0B0C0D0E0F1000040802433A2F571A
:10353C004F524B2F50726F6A6563742F335F506C10
:10354C0061736D615F52465F47656E657261746F42
:10355C00722F335F4669726D576172652F52465FE9
:10356C0047454E5F546573742F4472697665727368
:10357C002F53544D3332463078785F48414C5F447A
:10358C0072697665722F5372632F73746D33326662
:10359C003078785F68616C5F6164632E6300000053
:1035AC00433A2F574F524B2F50726F6A6563742FEB
:1035BC00335F506C61736D615F52465F47656E653A
:1035CC007261746F722F335F4669726D57617265E9
:1035DC002F52465F47454E5F546573742F44726992
:1035EC00766572732F53544D3332463078785F487A
:1035FC00414C5F4472697665722F5372632F7374FA
:10360C006D3332663078785F68616C5F636F7274AB
:10361C0065782E6300000000433A2F574F524B2F12
:10362C0050726F6A6563742F335F506C61736D6198
:10363C005F52465F47656E657261746F722F335FC0
:10364C004669726D576172652F52465F47454E5FF2
:10365C00546573742F447269766572732F53544D8D
:10366C003332463078785F48414C5F4472697665F6
:10367C00722F5372632F73746D3332663078785FA8
:10368C0068616C5F6770696F2E630000433A2F5757
:10369C004F524B2F50726F6A6563742F335F506CAF
:1036AC0061736D615F52465F47656E657261746FE1
:1036BC00722F335F4669726D576172652F52465F88
:1036CC0047454E5F546573742F4472697665727307
:1036DC002F53544D3332463078785F48414C5F4419
:1036EC0072697665722F5372632F73746D33326601
:1036FC003078785F68616C5F6932632E630000001C
:10370C00433A2F574F524B2F50726F6A6563742F89
:10371C00335F506C61736D615F52465F47656E65D8
:10372C007261746F722F335F4669726D5761726587
:10373C002F52465F47454E5F546573742F44726930
:10374C00766572732F53544D3332463078785F4818
:10375C00414C5F4472697665722F5372632F737498
:10376C006D3332663078785F68616C5F6932635FA5
:10377C0065782E6300000000433A2F574F524B2FB1
:10378C0050726F6A6563742F335F506C61736D6137
:10379C005F52465F47656E657261746F722F335F5F
:1037AC004669726D576172652F52465F47454E5F91
:1037BC00546573742F447269766572732F53544D2C
:1037CC003332463078785F48414C5F447269766595
:1037DC00722F5372632F73746D3332663078785F47
:1037EC0068616C5F7263632E63000000433A2F576D
:1037FC004F524B2F50726F6A6563742F335F506C4E
:10380C0061736D615F52465F47656E657261746F7F
:10381C00722F335F4669726D576172652F52465F26
:10382C0047454E5F546573742F44726976657273A5
:10383C002F53544D3332463078785F48414C5F44B7
:10384C0072697665722F5372632F73746D3332669F
:10385C003078785F68616C5F7263635F65782E6344
:10386C0000000000433A2F574F524B2F50726F6A93
:10387C006563742F335F506C61736D615F52465F8B
:10388C0047656E657261746F722F335F4669726D36
:10389C00576172652F52465F47454E5F546573748E
:1038AC002F447269766572732F53544D3332463000
:1038BC0078785F48414C5F4472697665722F537219
:1038CC00632F73746D3332663078785F68616C5F28
:1038DC0074696D2E63000000433A2F574F524B2FE3
:1038EC0050726F6A6563742F335F506C61736D61D6
:1038FC005F52465F47656E657261746F722F335FFE
:10390C004669726D576172652F52465F47454E5F2F
:10391C00546573742F447269766572732F53544DCA
:10392C003332463078785F48414C5F447269766533
:10393C00722F5372632F73746D3332663078785FE5
:10394C0068616C5F74696D5F65782E6300000000C0
:10395C00433A2F574F524B2F50726F6A6563742F37
:10396C00335F506C61736D615F52465F47656E6586
:10397C007261746F722F335F4669726D5761726535
:10398C002F52465F47454E5F546573742F447269DE
:10399C00766572732F53544D3332463078785F48C6
:1039AC00414C5F4472697665722F5372632F737446
:1039BC006D3332663078785F68616C5F75617274F4
:0439CC002E63000066
:0439D000E900000802
:0439D400C100000826
:0439D80000127A005F
:0400000508000239B4
:00000001FF
